:020000040000FA
:100000000C945D000C9485000C9485000C94850084
:100010000C9485000C9485000C9485000C9485004C
:100020000C9485000C9485000C9485000C9485003C
:100030000C9485000C9485000C9485000C9485002C
:100040000C9425030C9485000C9485000C94850079
:100050000C9485000C9485000C9485000C9485000C
:100060000C9485000C94850000000008000201003B
:100070000003040700000000000000000000000072
:10008000250028002B0000000000240027002A0083
:10009000040404040404040402020202020203032E
:1000A0000303030301020408102040800102040836
:1000B00010200102040810206C0411241FBECFEF91
:1000C000D8E0DEBFCDBF11E0A0E0B1E0E2EDF9E0A5
:1000D00002C005900D92AC31B107D9F721E0ACE137
:1000E000B1E001C01D92AD33B207E1F710E0CDE5FC
:1000F000D0E004C02197FE010E94E104CC35D10775
:10010000C9F70E946F030C94E7040C94000090E080
:10011000FC01EC55FF4F249180579F4FFC018491C7
:10012000882399F090E0880F991FFC01EA57FF4F50
:10013000A591B491FC01E458FF4F859194918FB73C
:10014000F894EC91E22BEC938FBF089590E0FC01C2
:10015000E859FF4F2491FC01EC55FF4F3491FC010D
:10016000E057FF4FE491EE23C9F0222339F023300A
:1001700001F1A8F4213019F1223029F1F0E0EE0F5D
:10018000FF1FE458FF4FA591B4918FB7F894EC91FD
:10019000611126C030953E233C938FBF08952730D0
:1001A000A9F02830C9F0243049F7809180008F7D74
:1001B00003C0809180008F7780938000DFCF84B56B
:1001C0008F7784BDDBCF84B58F7DFBCF8091B0006E
:1001D0008F778093B000D2CF8091B0008F7DF9CF20
:1001E0003E2BDACF8E3008F08E508770806480937B
:1001F0007C0080917A00806480937A0080917A00FC
:1002000086FDFCCF809178009091790008953FB7EA
:10021000F8948091210190912201A0912301B09145
:10022000240126B5A89B05C02F3F19F00196A11DFA
:10023000B11D3FBFBA2FA92F982F8827BC01CD0130
:10024000620F711D811D911D42E0660F771F881F8F
:10025000991F4A95D1F70895AF92BF92CF92DF923E
:10026000EF92FF920F931F93CF93DF936C017B016B
:100270008B01040F151FEB015E01AE18BF08C017FC
:10028000D10759F06991D601ED91FC910190F0816F
:10029000E02DC6010995892B79F7C501DF91CF9132
:1002A0001F910F91FF90EF90DF90CF90BF90AF9094
:1002B0000895089590E080E008958F929F92AF9204
:1002C000BF920F931F93CF93DF93CDB7DEB7A19764
:1002D0000FB6F894DEBF0FBECDBF19A2423008F4AE
:1002E0004AE08E010F5D1F4F842E912CB12CA12C62
:1002F000A50194010E94A904E62FB901CA01EA30C0
:1003000044F5E05DD801EE938D01232B242B252BA2
:1003100079F790E080E0109769F0FD0101900020EE
:10032000E9F73197AF014A1B5B0BBD0185E291E014
:100330000E942C01A1960FB6F894DEBF0FBECDBF70
:10034000DF91CF911F910F91BF90AF909F908F90B1
:100350000895E95CD7CFFC0101900020E9F73197BF
:10036000AF01481B590BBC0185E291E00C942C01B4
:10037000CF93DF93EC0160E08E810E94A60061E0E4
:100380008E810E94A60060E08E810E94A6008BE80C
:1003900091E00197F1F7DF91CF910895CF92DF922D
:1003A000EF92FF920F931F93CF93DF936C017C0129
:1003B00087E0E80EF11CD0E0C0E0062F10E0B801A5
:1003C0000C2E02C0759567950A94E2F76170F701EB
:1003D00081917F010E94A6002196C430D10579F752
:1003E000C601DF91CF911F910F91FF90EF90DF90A9
:1003F000CF900C94B801CF92DF92EF92FF920F93BF
:100400001F93CF93DF93EC01F62E642F8C810E9413
:10041000A6008D818F3F19F060E00E94A6000F2D8D
:1004200010E08F8584FF25C06E0187E0C80ED11CC7
:10043000F12CE12CB8010E2C02C0759567950A9439
:10044000E2F76170F60181916F010E94A600FFEF53
:10045000EF1AFF0A88E0E816F10461F7CE01DF9198
:10046000CF911F910F91FF90EF90DF90CF900C9460
:10047000B801B80184E0759567958A95E1F7CE01DA
:100480000E94CE016F2DCE01DF91CF911F910F9170
:10049000FF90EF90DF90CF900C94CE0140E0682F5A
:1004A00085E291E00C94FB01CF93DF93823029F435
:1004B00090913401986090933401809338011092A8
:1004C000390180E480933A0180E180933B0180E52B
:1004D00080933C01809129010E94870080912A012C
:1004E0008F3F11F00E94870080912B010E948700AE
:1004F000C5E2D1E09E01255231408091340184FD56
:100500000AC084E090E02196281739073CF48E81D8
:100510000E948700EFCF88E090E0F5CF8BE39DE06D
:100520000197F1F760E0809129010E94A60060E048
:1005300080912B010E94A60080912A018F3F19F023
:1005400060E00E94A6008091340184FD39C063E020
:1005500085E291E00E94CE01CBE4D6E4CE01019782
:10056000F1F763E085E291E00E94CE012197F1F777
:1005700063E085E291E00E94CE0183E592E001977D
:10058000F1F762E085E291E00E94CE0180913401B2
:1005900080620E944E0284E0809335018CE00E94CC
:1005A0004E0281E00E944E028BE39FE10197F1F73A
:1005B00082E08093360186E0DF91CF910C944E0269
:1005C00080620E944E028BE496E40197F1F78091DD
:1005D000340180620E944E0283E592E00197F1F7B8
:1005E0008091340180620E944E02D0CF41E00E948F
:1005F000FB0181E090E00895CF92DF92EF92FF92AD
:100600006C01990FEE08FF08F7FE16C041E06DE29D
:1006100085E291E00E94FB0166277727CB016C19E8
:100620007D098E099F094AE00E945D010196FF90B5
:10063000EF90DF90CF9008954AE0C701B601FF9098
:10064000EF90DF90CF900C945D011F920F920FB648
:100650000F9211242F933F938F939F93AF93BF9348
:1006600080911D0190911E01A0911F01B091200168
:1006700030911C0123E0230F2D3758F50196A11D61
:10068000B11D20931C0180931D0190931E01A09326
:100690001F01B09320018091210190912201A0912E
:1006A0002301B09124010196A11DB11D8093210168
:1006B00090932201A0932301B0932401BF91AF91A5
:1006C0009F918F913F912F910F900FBE0F901F9090
:1006D000189526E8230F0296A11DB11DD2CF78945C
:1006E00084B5826084BD84B5816084BD85B5826037
:1006F00085BD85B5816085BD80916E0081608093E8
:100700006E00109281008091810082608093810050
:100710008091810081608093810080918000816060
:10072000809380008091B10084608093B1008091BB
:10073000B00081608093B00080917A0084608093E3
:100740007A0080917A00826080937A0080917A00AA
:10075000816080937A0080917A00806880937A002B
:100760001092C10082E00E94540287E00E9487003C
:1007700086E00E94870085E00E948700CC24CA940E
:1007800093E0D92EE12CF12C2BE3222E2FE1322EF7
:1007900000E010E08EE00E94F200EC018FE00E9489
:1007A000F2003C0124E630E0DE010E94DA04A701F9
:1007B00096010E948A044901E90122E330E0D30155
:1007C0000E94DA04A70196010E948A042901CE3111
:1007D000D1050CF06EC061E087E00E94A60060E0E9
:1007E00086E00E94A60060E085E00E94A60081E00D
:1007F0000E944E02C1010197F1F7E1E080913801BA
:100800008111E0E0E195F0E0EB5DFE4F84898068C6
:100810000E944E028CE091E00E94AB01C2010E9456
:10082000FC0282E191E00E94AB01E0913801E230EC
:1008300008F050C0E150F0E0EB5DFE4F8489806825
:100840000E944E0284E191E00E94AB01C4010E942B
:10085000FC028AE191E00E94AB010E9407012B019A
:100860003C0188EE882E83E0982EA12CB12C0E94AA
:1008700007016419750986099709683E7340810567
:100880009105A8F321E0821A9108A108B10888EE29
:10089000480E83E0581E611C711C81149104A10450
:1008A000B10429F70115110509F474CF0E94000065
:1008B00071CF60E087E0C634D10524F40E94A60021
:1008C00061E08ECF0E94A60060E086E00E94A60054
:1008D00061E08ACFE1E0AFCFE5E2F1E0138212827E
:1008E00084E091E0918380838CE084838FEF858323
:1008F0008BE086838AE0878389E0808788E0818730
:1009000084E082871386148615861686178681E012
:100910000C945402052E97FB1EF400940E94A1042F
:1009200057FD07D00E94A90407FC03D04EF40C9495
:10093000A10450954095309521953F4F4F4F5F4F03
:10094000089590958095709561957F4F8F4F9F4F3B
:100950000895A1E21A2EAA1BBB1BFD010DC0AA1F00
:10096000BB1FEE1FFF1FA217B307E407F50720F018
:10097000A21BB30BE40BF50B661F771F881F991F93
:100980001A9469F760957095809590959B01AC01DC
:10099000BD01CF010895A29FB001B39FC001A39FE5
:1009A000700D811D1124911DB29F700D811D1124A8
:1009B000911D08950E94CB04B7FF0895821B930BED
:1009C0000895EE0FFF1F0590F491E02D0994F8941F
:1009D000FFCF00000000F6022C015A0159015465B6
:0E09E0006D703A004300536F696C3A002500B9
:107E0000112484B714BE81FFF0D085E080938100F7
:107E100082E08093C00088E18093C10086E0809377
:107E2000C20080E18093C4008EE0C9D0259A86E02C
:107E300020E33CEF91E0309385002093840096BBD3
:107E4000B09BFECF1D9AA8958150A9F7CC24DD24C4
:107E500088248394B5E0AB2EA1E19A2EF3E0BF2EE7
:107E6000A2D0813461F49FD0082FAFD0023811F036
:107E7000013811F484E001C083E08DD089C08234E0
:107E800011F484E103C0853419F485E0A6D080C0E4
:107E9000853579F488D0E82EFF2485D0082F10E0AE
:107EA000102F00270E291F29000F111F8ED06801E7
:107EB0006FC0863521F484E090D080E0DECF843638
:107EC00009F040C070D06FD0082F6DD080E0C81688
:107ED00080E7D80618F4F601B7BEE895C0E0D1E017
:107EE00062D089930C17E1F7F0E0CF16F0E7DF06D8
:107EF00018F0F601B7BEE89568D007B600FCFDCFD4
:107F0000A601A0E0B1E02C9130E011968C91119780
:107F100090E0982F8827822B932B1296FA010C0160
:107F200087BEE89511244E5F5F4FF1E0A038BF0790
:107F300051F7F601A7BEE89507B600FCFDCF97BE46
:107F4000E89526C08437B1F42ED02DD0F82E2BD052
:107F50003CD0F601EF2C8F010F5F1F4F84911BD097
:107F6000EA94F801C1F70894C11CD11CFA94CF0C13
:107F7000D11C0EC0853739F428D08EE10CD085E9AC
:107F80000AD08FE07ACF813511F488E018D01DD067
:107F900080E101D065CF982F8091C00085FFFCCF94
:107FA0009093C60008958091C00087FFFCCF809118
:107FB000C00084FD01C0A8958091C6000895E0E648
:107FC000F0E098E1908380830895EDDF803219F02E
:107FD00088E0F5DFFFCF84E1DECF1F93182FE3DFCA
:107FE0001150E9F7F2DF1F91089580E0E8DFEE27F6
:047FF000FF270994CA
:027FFE00040479
:00000001FF
